:0400000014EF00F009
:10000800E9CF4FF0EACF50F0F3CF51F022EF00F0F4
:10001800D8CF58F0E8CF59F0E0CF5AF0FFEF00F012
:1000280000EE00F0470EEE6AE806FDE10001646BA1
:10003800636B626B616B606BF8EF01F0F4CF52F0A9
:100048009EAAD0D000016051410FE96EEA6AAECF96
:10005800EFFF604B612B6151800A800F030ED8B40B
:10006800605D01E2BFD0456A466A606B616B4250D1
:1000780000B0A8D0540A05E14350540A02E10080B8
:10008800B1D04250C10A04E14350C10A01E1A7D0EE
:100098004250710A08E14350710A05E19EAAFED751
:1000A800AE1C646F9FD04250720A13E14350720A2B
:1000B80010E19EAAFED7AECF47F047505FEC02F0A2
:1000C8009EAAFED7AECFBEFF9EAAFED7AECF67FFD1
:1000D80089D04250730A1EE14350730A1BE1AB9862
:1000E8004FEC02F0AD68ACA2FED74D6A44380F0B56
:1000F8004E6E4D50100DF3504E24E96EEA6AEF50E3
:10010800AD6EACA2FED74D2A030E4D64EFD782EC3C
:1001180002F03FD04250740A3EE14350740A3BE17A
:100128009EAAFED7AECF4AF04B6A4A504B6E4A6A37
:100138009EAAFED7AE504A12AB984FEC02F0110EB1
:10014800C26E9E9C0001626B636B4A50625D4B50AD
:10015800635903E2624B632BF8D7C282C2B2FED75F
:10016800C4CF48F0C3CF49F0493A49324932030E67
:1001780049169E9C010EC26EAD68ACA2FED749C05E
:10018800ADFFACA2FED748C0ADFFACA2FED782EC53
:1001980002F0AB8827D04250750A11E14350750A26
:1001A8000EE19EAAFED7AECF4CF04C5005E00F01F1
:1001B800418F4CC040FF16D088EC02F013D0AB98AA
:1001C800008210D0550A05E14350550A02E1AB9868
:1001D80006D04250C10A05E14350C10A02E1FF00BE
:1001E80001D0008452C0F4FF51C0F3FF50C0EAFFB1
:1001F8004FC0E9FF1100E9CF5BF0EACF5CF0F3CF25
:100208005DF0F4CF5EF09EAC70D09E9C63D0443815
:100218000F0B556E5550010FE96EEA6AC4CFEFFF18
:10022800050E62D044380F0B556E5550110FE96E0C
:10023800EA6AC4CFEFFF250E57D044380F0B556E2E
:100248005550210FE96EEA6AC4CFEFFF2D0E4CD04E
:1002580044380F0B556E5550310FE96EEA6AC4CF1A
:10026800EFFF010EC26E546A44380F0B556E4450AE
:1002780029EC02F00FE24450030B556E55465546E3
:1002880044505518F30B5518446E44505418FC0B41
:10029800541810D044380F0B556E4430E83229EC0E
:1002A80002F009E254C055F05546554644505518D9
:1002B800F30B5518446E542A030E5464D5D74438AA
:1002C8000F0B556E552A553A445055180F0B5518B3
:1002D800446E0BD0C250010A9AE0040AA3E0200A37
:1002E800ACE0080AB5E0010EC26E7EA018D07E9080
:1002F800C282454A462A510E455CC30E4658D8B0BC
:1003080000A202D0AB88009200A006D0600E0001C7
:10031800626FEA0E636F03D00001624B632B5EC00D
:10032800F4FF5DC0F3FF5CC0EAFF5BC0E9FF5AC0A1
:10033800E0FF59C0E8FF58C0D8FF1000730ED36E15
:10034800D26A900E0F013F6FD40E3E6F0E0E3D6FB6
:10035800D08EC00EF26EF00EF16EF06A300E9F6E07
:10036800A26AA56A7C6A7F6A270E386F100E396FF9
:10037800200E3A6F929E929C9490899E899C8B90B5
:100388003FEC02F012EC02F0200E416F406B6CEC77
:1003980002F079EF02F0D39EBF0E0F013F6FDF0E20
:1003A8003E6F0F0E3D6F8CEC02F08B948A948B920B
:1003B800899C8B90456A466A899E0A0EB86E03002E
:1003C800898EB70E3F6F79EC02F0A90E455C610E7D
:1003D800465802E200A4F9D70001606B616B0094F3
:1003E800BF0E0F013F6FE6D7A2EC01F0898E09D04E
:1003F800899C01D0898C8B9004D0899C01D0898CF0
:100408008B8000B0CFEC01F04450030BF1E0010AFF
:10041800F1E0030AF2E0010AF2E0F3D7C00E496FF7
:10042800BB680C0EBD6EB96A0C0E666E636ABE6A56
:10043800676A9494939494928B948A948B929E92E4
:10044800030EBA6EB66ABA841200030B100DF3508D
:10045800010F5524E96EEA6AEF50566E44380F0BC7
:10046800576E5450100DF350010F5724E96EEA6A85
:10047800EF50565C1200010EB06EA00EAF6EAC6A63
:10048800080EB86E948C948E800EAB6E9D8A9D98E3
:10049800AB88AC9A800CAC8A0F013E970E0E486F61
:1004A8002F0E576F340E586F7E94680E4B6F4A6B41
:1004B80093904A851200E8CF53F0110E636E53668D
:1004C80003D0B96E8A94110C120EB96E8B94120C6B
:1004D8009280928293869388928AC16A050EC06E32
:1004E800010EC26E9E9C9D8C010C010E516F130E65
:1004F800526F7E907D800F015185130CAC9A0F01CD
:100508003E874A958A9012000F01419F406B120066
:080518000F01419F406B12002E
:00000001FF
