:0400000014EF00F009
:10000800E9CF4FF0EACF50F0F3CF51F022EF00F0F4
:10001800D8CF58F0E8CF59F0E0CF5AF0FFEF00F012
:1000280000EE00F0470EEE6AE806FDE10001646BA1
:10003800636B626B616B606BF8EF01F0F4CF52F0A9
:100048009EAAD0D000016051410FE96EEA6AAECF96
:1000E8004FEC02F0AD68ACA2FED74D6A44380F0B56
:1000F8004E6E4D50100DF3504E24E96EEA6AEF50E3
:10010800AD6EACA2FED74D2A030E4D64EFD782EC3C
:1001180002F03FD04250740A3EE14350740A3BE17A
:100128009EAAFED7AECF4AF04B6A4A504B6E4A6A37
:100138009EAAFED7AE504A12AB984FEC02F0110EB1
:10014800C26E9E9C0001626B636B4A50625D4B50AD
:10015800635903E2624B632BF8D7C282C2B2FED75F
:10016800C4CF48F0C3CF49F0493A49324932030E67
:1001780049169E9C010EC26EAD68ACA2FED749C05E
:10018800ADFFACA2FED748C0ADFFACA2FED782EC53
:1001980002F0AB8827D04250750A11E14350750A26
:100208005DF0F4CF5EF09EAC70D09E9C63D0443815
:100218000F0B556E5550010FE96EEA6AC4CFEFFF18
:10022800050E62D044380F0B556E5550110FE96E0C
:10023800EA6AC4CFEFFF250E57D044380F0B556E2E
:100248005550210FE96EEA6AC4CFEFFF2D0E4CD04E
:1002580044380F0B556E5550310FE96EEA6AC4CF1A
:10026800EFFF010EC26E546A44380F0B556E4450AE
:1002780029EC02F00FE24450030B556E55465546E3
:1002880044505518F30B5518446E44505418FC0B41
:10029800541810D044380F0B556E4430E83229EC0E
:100408008B8000B0CFEC01F04450030BF1E0010AFF
:10041800F1E0030AF2E0010AF2E0F3D7C00E496FF7
:10042800BB680C0EBD6EB96A0C0E666E636ABE6A56
:10046800576E5450100DF350010F5724E96EEA6A85
:10047800EF50565C1200010EB06EA00EAF6EAC6A63
:10048800080EB86E948C948E800EAB6E9D8A9D98E3
:10049800AB88AC9A800CAC8A0F013E970E0E486F61
:1004A8002F0E576F340E586F7E94680E4B6F4A6B41
:1004B80093904A851200E8CF53F0110E636E53668D
:1004F800526F7E907D800F015185130CAC9A0F01CD
:100508003E874A958A9012000F01419F406B120066
:080518000F01419F406B12002E

