:020000040000FA
:0400000080EF7FF01E
:08FEF800000000000000000002
:10FF0000730ED36E000EAC6E010EB06EA00EAF6E0F
:10FF1000080EB86E900EAB6E0F01200E3A6F006A9D
:10FF20003FD8AA084EE1006A3BD8F86E076E38D871
:10FF3000F76EA96E35D8F66EA86E32D8016E012A1A
:10FF400000EE09F0F56E2CD8EC6E012EFBD70066A2
:10FF500039D007AC03D0040E1BD818D007AE04D09C
:10FF60000C00C40E15D812D0940E12D80A00080E38
:10FF7000056E00EE0AF0080E066EEE50F56E0F00EC
:10FF8000062EFBD7840E04D8052EF5D7A694CBD722
:10FF9000A66E550EA76EAA0EA76EA68200001200CE
:10FFA000150E026E036A046A9EAA03D0AE500026A4
:10FFB0001200042EF9D7032EF6D7022EF3D70066CF
:10FFC00001D09AD79EAAFED7AE50AA08FBE1ABD7C4
:020000040030CA
:03000100080000F4
:02000500A780D2
:060008000FC00FE00F40E5
:00000001FF
